:020000040800F2
:1000000000000220851B0008211B0008231B00089C
:10001000251B0008271B0008291B00080000000002
:100020000000000000000000000000002B1B000882
:100030002D1B0008000000002F1B0008311B0008CA
:10004000D51B0008D51B0008D51B0008D51B0008D0
:10005000D51B0008D51B0008D51B0008D51B0008C0
:10006000D51B0008D51B0008D51B0008D51B0008B0
:10007000D51B0008D51B0008D51B0008D51B0008A0
:10008000D51B0008D51B0008D51B0008D51B000890
:10009000D51B0008D51B0008D51B0008D51B000880
:1000A000D51B0008D51B0008D51B0008D51B000870
:1000B000D51B0008D51B0008D51B0008D51B000860
:1000C000D51B0008D51B0008D51B0008D51B000850
:1000D000D51B0008D51B0008D51B0008D51B000840
:1000E000D51B0008D51B0008D51B0008D51B000830
:1000F000D51B0008D51B0008D51B0008D51B000820
:10010000D51B0008D51B0008D51B0008D51B00080F
:10011000D51B0008D51B0008D51B0008D51B0008FF
:10012000D51B0008D51B0008D51B0008D51B0008EF
:10013000D51B0008D51B0008D51B0008D51B0008DF
:10014000D51B0008D51B0008D51B0008D51B0008CF
:10015000D51B0008D51B0008D51B0008D51B0008BF
:10016000D51B0008D51B0008D51B0008D51B0008AF
:10017000D51B0008D51B0008D51B00080000000097
:08018000D51B0008D51B000887
:1001880010B5054C237833B9044B13B10448AFF3C9
:1001980000800123237010BD100000200000000023
:1001A800301C000808B5034B1BB103490348AFF3E3
:1001B800008008BD0000000014000020301C00086A
:1001C80053B94AB9002908BF00281CBF4FF0FF31B6
:1001D8004FF0FF3000F072B9ADF1080C6DE904CEB4
:1001E80000F006F8DDF804E0DDE9022304B070470A
:1001F8002DE9F047089E04468846002B4BD18A42D9
:10020800154667D9B2FA82F24AB1C2F1200701FA5B
:1002180002F320FA07F7954047EA030894404FEAAB
:10022800154E230CB8FBFEF71FFA85FC0EFB17884A
:1002380043EA084307FB0CF1994209D9EB1807F187
:10024800FF3080F01B81994240F21881023F2B4415
:100258005B1AA4B2B3FBFEF00EFB103344EA03446E
:1002680000FB0CFCA44509D92C1900F1FF3380F0E0
:100278000781A44540F2048102382C4440EA074033
:10028800A4EB0C0400271EB1D4400023C6E90043A8
:100298003946BDE8F0878B4209D9002E00F0EB8083
:1002A8000027C6E9000138463946BDE8F087B3FAA9
:1002B80083F7002F47D18B4202D3824200F2FA80A3
:1002C800841A61EB030301209846002EE0D0C6E9AA
:1002D8000048DDE702B9FFDEB2FA82F2002A40F0F8
:1002E8008F80491B4FEA154E1FFA85F80127B1FB8D
:1002F800FEFC230C0EFB1C1143EA014308FB0CF126
:10030800994207D9EB180CF1FF3002D2994200F25A
:10031800CD808446591AA3B2B1FBFEF00EFB10142F
:1003280043EA044408FB00F8A04507D92C1900F15A
:10033800FF3302D2A04500F2B6801846A4EB0804A9
:1003480040EA0C409FE7C7F1200CBB4022FA0CFEA4
:100358004EEA030E01FA07F420FA0CF521FA0CF321
:100368004FEA1E482543B3FBF8F92C0C08FB193358
:100378001FFA8EFA44EA034309FB0AF49C4202FA84
:1003880007F200FA07F10BD91EEB030309F1FF305E
:1003980080F087809C4240F28480A9F1020973446E
:1003A8001B1BADB2B3FBF8F008FB103345EA03445E
:1003B80000FB0AFAA24508D91EEB040400F1FF333A
:1003C8006BD2A24569D90238744440EA0940A0FBBF
:1003D8000289A4EB0A044C45C2464B4654D351D07B
:1003E800002E69D0B1EB0A0564EB030404FA0CFC97
:1003F800FD40FC404CEA0505C6E90054002747E7E4
:10040800C2F1200320FA03F7954001FA02F021FA1D
:1004180003F34FEA154E3843010CB3FBFEF71FFAFE
:1004280085F80EFB173341EA034107FB08F38B42BB
:1004380004FA02F407D9691807F1FF3C2FD28B425E
:100448002DD9023F2944CB1A81B2B3FBFEF00EFB33
:10045800103341EA034100FB08F38B4207D96918BE
:1004680000F1FF3C17D28B4215D902382944C91A2A
:1004780040EA07473BE73746304609E70746E7E6DD
:100488001846FBE64145ABD2B8EB020A69EB0E020F
:1004980001381346A4E76046E9E7184695E767463A
:1004A800D1E781467CE702382C4447E7ACF1020CDF
:1004B8002B442FE7384608E73746E9E6704700BF80
:1004C80010B504460E4B18784FF47A73B3FBF0F36B
:1004D8000C4A1068B0FBF3F000F09CF868B90F2CD8
:1004E80001D901200AE0002221464FF0FF3000F038
:1004F8005DF8034B5C60002000E0012010BD00BFE8
:10050800000000200C00002008B50B4B1A6842F4CC
:1005180000721A601A6842F480621A601A6842F41B
:1005280080721A60032000F02FF80020FFF7C8FF40
:1005380001F0D2FA002008BD003C0240034A1168CD
:10054800034B1B780B441360704700BF3400002036
:1005580000000020014B1868704700BF34000020DD
:1005680038B50446FFF7F6FF0546B4F1FF3F02D061
:10057800044B1B781C44FFF7EDFF401BA042FAD345
:1005880038BD00BF00000020074AD36823F4E063A9
:100598001B041B0C000200F4E060184340F0BF602D
:1005A80040F40030D060704700ED00E030B4174BE5
:1005B800DB68C3F30223C3F10704042C28BF042417
:1005C8001D1D062D18D9033B4FF0FF3505FA04F41D
:1005D80021EA0401994005FA03F322EA03031943C7
:1005E80000280BDB0901C9B200F1604000F5614049
:1005F80080F8001330BC70470023E5E700F00F00D7
:100608000901C9B2024B1954F4E700BF00ED00E03C
:1006180014ED00E00138B0F1807F0AD2064B586033
:10062800064AF02182F823100020986007221A60F9
:1006380070470120704700BF10E000E000ED00E0C7
:1006480000230F2B00F2D780F0B482B039E00722E4
:1006580000E00022B2403A430234674E46F82420B4
:10066800664A1468EA4302EA04064F6817F4803FB2
:1006780001D045EA0406614C2660646802EA040673
:100688004F6817F4003F01D045EA04065B4C6660EA
:10069800A46802EA04064F6817F4801F01D045EAEF
:1006A8000406564CA660E46822404E6816F4001F03
:1006B80001D045EA0402514CE26001330F2B00F2ED
:1006C800978001229A400C6804EA0205AA42F4D1F4
:1006D8004C68022C01D0122C10D1DE08083650F8D4
:1006E80026C003F00704A7000F24BC402CEA040C22
:1006F8000C69BC4044EA0C0440F8264004685F00DA
:100708000326BE40F64306EA040C4C6804F00304D2
:10071800BC4044EA0C0404604C6804F1FF3CBCF1A2
:10072800010F03D9112C01D0122C10D1846806EACC
:10073800040CCC68BC4044EA0C048460446824EA95
:1007480002024C68C4F300149C4014434460C2681D
:1007580016408A68BA403243C2604A6812F0805F25
:10076800ABD000220192264A546C44F4804454646D
:10077800526C02F480420192019A9C08A61C1E4AFF
:1007880052F8267003F0030296000F22B24027EABF
:1007980002071C4A90423FF45CAF02F58062904227
:1007A8001AD002F58062904218D002F58062904219
:1007B80016D002F58062904214D002F58062904211
:1007C80012D002F58062904210D002F58062904209
:1007D8003FF43DAF08223DE701223BE7022239E71B
:1007E800032237E7042235E7052233E7062231E7FB
:1007F80002B0F0BC7047704700380140003C01402F
:10080800003802400000024012B9090481617047B3
:1008180081617047002800F0BB8170B582B0044642
:10082800036813F0010F3BD0A74B9B6803F00C0340
:10083800042B2CD0A44B9B6803F00C03082B21D06D
:100848006368B3F5803F4FD0B3F5A02F52D09E4BCD
:100858001A6822F480321A601A6822F480221A6018
:100868006368002B50D0FFF775FE0546964B1B6852
:1008780013F4003F14D1FFF76DFE401B6428F5D92F
:1008880003208AE1904B5B6813F4800FD8D08E4B1D
:100898001B6813F4003F03D06368002B00F07A81D3
:1008A800236813F0020F55D0874B9B6813F00C0F89
:1008B8003ED0854B9B6803F00C03082B33D0E368CC
:1008C800002B68D0814B01221A60FFF743FE0546D2
:1008D8007D4B1B6813F0020F54D1FFF73BFE401B02
:1008E8000228F5D9032058E1774A136843F4803386
:1008F8001360B5E7744B1A6842F480221A601A68CC
:1009080042F480321A60ABE7FFF724FE05466E4BCF
:100918001B6813F4003FC3D0FFF71CFE401B64287C
:10092800F5D9032039E1684B5B6813F4800FC6D111
:10093800654B1B6813F0020F04D0E368012B01D04C
:1009480001202AE1604A136823F0F803216943EA89
:10095800C1031360236813F0080F40D0636963B3C1
:100968005B4B01221A60FFF7F5FD0546564B5B6F9E
:1009780013F0020F33D1FFF7EDFD401B0228F5D924
:1009880003200AE1504A136823F0F803216943EA77
:10099800C1031360DEE74D4B00221A60FFF7DAFD52
:1009A8000546494B1B6813F0020FD3D0FFF7D2FD61
:1009B800401B0228F5D90320EFE0454B00221A60BE
:1009C800FFF7C8FD0546404B5B6F13F0020F06D0DA
:1009D800FFF7C0FD401B0228F5D90320DDE023689E
:1009E80013F0040F79D0384B1B6C13F0805F33D1B0
:1009F80000230193344B1A6C42F080521A641B6C2A
:100A080003F080530193019B0125324B1B6813F4BB
:100A1800807F23D0A368012B34D0052B38D02A4BF4
:100A28001A6F22F001021A671A6F22F004021A677D
:100A3800A368002B36D0FFF78DFD0646224B1B6FAF
:100A480013F0020F48D1FFF785FD801B41F2883370
:100A58009842F3D90320A0E00025D6E71D4A136881
:100A680043F480731360FFF775FD0646194B1B6846
:100A780013F4807FCED1FFF76DFD801B0228F5D9D6
:100A880003208AE0104A136F43F001031367CFE78E
:100A98000D4B1A6F42F004021A671A6F42F00102F6
:100AA8001A67C5E7FFF756FD0646074B1B6F13F09D
:100AB800020F11D0FFF74EFD801B41F28833984298
:100AC800F3D9032069E000BF003802400000474224
:100AD800800E474200700040E5B9A369002B5BD047
:100AE800304A926802F00C02082A58D0022B17D01C
:100AF8002D4B00221A60FFF72DFD0446294B1B6879
:100B080013F0007F42D0FFF725FD001B0228F5D91E
:100B1800032042E0234A136C23F080531364DCE77C
:100B2800214B00221A60FFF715FD05461D4B1B6877
:100B380013F0007F06D0FFF70DFD401B0228F5D902
:100B480003202AE0E369226A1343626A43EA8213B4
:100B5800A26A5208013A43EA0243E26A43EA02639C
:100B6800104A5360104B01221A60FFF7F3FC044649
:100B78000C4B1B6813F0007F06D1FFF7EBFC001B42
:100B88000228F5D9032008E0002006E0002004E050
:100B980001207047012000E0002002B070BD012054
:100BA800FBE700BF0038024060004742324B9B68B9
:100BB80003F00C03042B5CD0082B01D02F4870479E
:100BC8002DE9F04B2C4B5A6802F03F025B6813F496
:100BD800800F2BD0284B5B68C3F388131E46002771
:100BE8005C010025E41A65EB0705A90141EA946157
:100BF800A001001B61EB0501CB0043EA5073C40060
:100C0800A01943EB07014B0243EAD05344022046A4
:100C180019460023FFF7D4FA174B5B68C3F3014367
:100C280001335B00B0FBF3F0BDE8F08B124B5B685F
:100C3800C3F388131E4600275C010025E41A65EB00
:100C48000705A90141EA9461A001001B61EB0501B8
:100C5800CB0043EA5073C400A01943EB07018B0291
:100C680043EA90538402204619460023FFF7A8FA66
:100C7800D2E70348704700BF003802400024F40060
:100C880000127A00002800F09D8070B504464F4B92
:100C98001B6803F00F038B4209D2CBB24B4A137087
:100CA800136803F00F038B4201D0012070BD236845
:100CB80013F0020F17D013F0040F04D0444A9368BE
:100CC80043F4E0539360236813F0080F04D0404ABC
:100CD800936843F4604393603D4A936823F0F003BC
:100CE800A068034393600D46236813F0010F32D0C8
:100CF8006368012B21D09A1E012A25D9344A12682B
:100D080012F0020F60D032498A6822F003021343BE
:100D18008B60FFF71FFC06462D4B9B6803F00C0306
:100D28006268B3EB820F16D0FFF714FC801B41F208
:100D380088339842F0D90320B8E7254A126812F49C
:100D4800003FE0D10120B1E7214A126812F0007F8C
:100D5800D9D10120AAE71D4B1B6803F00F03AB4252
:100D680009D9EAB2194B1A701B6803F00F03AB429A
:100D780001D001209AE7236813F0040F06D0144A23
:100D8800936823F4E053E1680B439360236813F0FE
:100D9800080F07D00E4A936823F46043216943EA99
:100DA800C1039360FFF702FF094B9B68C3F303136A
:100DB800084AD35CD840084B18600020FFF780FB36
:100DC800002073E70120704701206FE7003C0240D4
:100DD80000380240482100080C00002028B370B5F4
:100DE800044615460E4690F84930CBB104F1080187
:100DF800206800F01DF8A2683146206800F046F827
:100E0800236BA2682946606800F060F82268A16830
:100E180052F8213043F0010342F82130002070BD20
:100E280080F8483000F074FEE0E7012070470000C9
:100E380070B40C6850F82430134E1E404A688D6810
:100E480042EA0503CA6813430A6913434A6913430C
:100E58008A691343CA6913430A6A13434A6A1343E4
:100E68008A6A1343CA6A1343CA6B13430A6B134350
:100E78003343082D04D040F82430002070BC70475C
:100E880043F04003F7E700BF8000F0FF30B40132C1
:100E980050F8224004F040440B684D6843EA0513BB
:100EA8008D6843EA0523CD6843EA05430D69013D92
:100EB80043EA05534D69023D43EA056389690B43DB
:100EC800234340F82230002030BC7047B3F5804FF0
:100ED80005D06FF0704340F822300020704730B4DE
:100EE80050F82230094C1C400B684D6843EA051342
:100EF8008D6843EA0523CD6843EA054389690B43B6
:100F0800234340F82230002030BC70470000F0CF67
:100F18004FF0D84318807047014B1880704700BFC6
:100F28000008006CF8B507460D4616461C462A20F0
:100F3800FFF7EEFF380AFFF7EFFFF8B2FFF7ECFF15
:100F4800300AFFF7E9FFF0B2FFF7E6FF2B20FFF7C3
:100F5800DFFF280AFFF7E0FFE8B2FFF7DDFF200A0E
:100F6800FFF7DAFFE0B2FFF7D7FF2C20FFF7D0FF3B
:100F7800F8BD08B50120FFF7CBFF6420FFF7F0FAB2
:100F88002820FFF7C5FFC020FFF7C2FF2620FFF784
:100F9800C3FFC120FFF7BCFF1120FFF7BDFFC5202D
:100FA800FFF7B6FF3520FFF7B7FF3E20FFF7B4FF86
:100FB800C720FFF7ADFFBE20FFF7AEFF3620FFF7D3
:100FC800A7FF4820FFF7A8FF3A20FFF7A1FF552009
:100FD800FFF7A2FFB120FFF79BFF0020FFF79CFF60
:100FE8001F20FFF799FF2A20FFF792FF0020FFF745
:100FF80093FF0020FFF790FF0020FFF78DFFEF2001
:10100800FFF78AFF2B20FFF783FF0020FFF784FFFD
:101018000020FFF781FF0120FFF77EFF3F20FFF749
:101028007BFF3420FFF774FFB720FFF771FF07201D
:10103800FFF772FFB620FFF76BFF0A20FFF76CFF80
:101048008220FFF769FF2720FFF766FF0020FFF7E0
:1010580063FF1120FFF75CFF6420FFF781FA292066
:10106800FFF756FF6420FFF77BFA2C20FFF750FFAD
:101078000520FFF775FA08BD10B514460B46024661
:10108800FFF750FF2046FFF747FF10BD38B505466C
:10109800114B1B78012B0DD0032B0BD0022B01D049
:1010A800042B0ED1EF2340F23F1200210846FFF730
:1010B80039FF06E040F23F13EF2200210846FFF710
:1010C80031FF4FF4963403E0013C2846FFF724FF34
:1010D800002CF9D138BD00BF0800002070B5BDF85C
:1010E8001050161A5C1A013406FB0444B4F5963FF6
:1010F80001D94FF496349BB292B289B280B2FFF70D
:1011080011FF03E0013C2846FFF706FF002CF9D148
:1011180070BD2DE9F04F87B002921E46019395B23B
:10112800C5F1010424B2C5EBC53253001AB20592C9
:101138001FFA80FB1FFA81FA05EB0A01324689B2D1
:101148005846FFF799FFAAEB0501324689B258467F
:10115800FFF792FF05EB0B003246514680B2FFF7CE
:101168008BFFABEB05003246514680B2FFF784FF98
:101178004FF000090123039353E009F10105ADB2D3
:101188000FFA85F9039B02339BB21AB203921C44EF
:1011980024B20BEB05039BB2BDF808600AEB060806
:1011A8001FFA88F8019A414604931846FFF764FF2E
:1011B800ABEB0507BFB2019A41463846FFF75CFF23
:1011C800AAEB06081FFA88F8019A41460498FFF727
:1011D80053FF019A41463846FFF74EFF0BEB0607CF
:1011E800BFB20AEB05081FFA88F8019A414638464B
:1011F800FFF742FFABEB0606B6B2019A414630460E
:10120800FFF73AFFAAEB0505ADB2DDF804804246C8
:1012180029463846FFF730FF424629463046FFF751
:101228002BFF029B99450DDA002CA6DB029B013BA4
:101238001BB20293059B02339BB21AB205921C445F
:1012480024B29AE707B0BDE8F08F2DE9F04F83B0DC
:101258000F4616461D46BDF830300093A5EB010831
:10126800B8F1000FB8BFC8F10008A2EB0009B9F146
:10127800000FB8BFC9F10009C84504DC2B46154664
:101288001E4607460846AF4205DC33460646184662
:101298002B463D461F46A7EB050B1FFA8BFB0FFAA3
:1012A8008BF4A0EB060ABAF1000FB8BFCAF1000A26
:1012B80004EBD4746410864221DB4FF0FF330193B2
:1012C8000CE0009AB1B2A8B2FFF7D6FEA4EB0A046C
:1012D800A3B21CB2002C0BDB01352DB2BD4211DCD0
:1012E800C845EEDD009AA9B2B0B2FFF7C5FEEDE73A
:1012F800019A164436B20BEB030424B2ECE701233F
:101308000193EBE703B0BDE8F08F00B583B002446A
:1013180092B2013A00930B4612B2FFF796FF03B060
:101328005DF804FB00B583B00A4492B2013A009319
:1013380013B20246FFF789FF03B05DF804FB2DE9FD
:10134800F04F89B00390049190469A46BDF9483011
:101358000593BDF84C30019393B2C3F1010424B254
:10136800C3EBC3335A0013B20293002701260DE0E2
:101378007D1CADB22FB20236B3B21EB21C4424B2E9
:101388001AF0010F12D11AF0020F37D147455DDA72
:10139800002CEDDB08F1FF380FFA88F8029B0233C6
:1013A8009BB21AB202921C4424B2E1E7BDF80C3099
:1013B8000693E818BDF810101FFA88FB0791A1EBF7
:1013C8000B014FEA4B0292B2BDF814904A44013225
:1013D800019B12B209B200B2FFF7A4FF069A02EB12
:1013E8000B000799491B6A0092B24A440132019BDB
:1013F80012B209B200B2FFF795FFC4E7BDF80C308E
:101408000693581BBDF810101FFA88FB0791A1EB33
:101418000B014FEA4B0292B2BDF814904A440132D4
:10142800019B12B209B200B2FFF77CFF069AA2EB49
:101438000B000799491B6D00ADB24D446A1C019B16
:1014480012B209B200B2FFF76DFF9FE709B0BDE81D
:10145800F08FF0B583B006460C4615461F4692B28B
:10146800891A520092B2013212B209B2FFF75AFF3A
:1014780001970023009303232A4621463046FFF7AD
:101488005EFF03B0F0BD2DE9F04F89B088460393A5
:10149800BDF94850BDF94C100191BDF850100091AC
:1014A800984505DCCDF80C80984613460246184648
:1014B800019B984505DCCDF8048098462B460546E7
:1014C80018460399019CA14204DC019103942B4620
:1014D80015461A46019B43452ED01FFA82FAADB233
:1014E800AAEB05039BB29C46039CA2B2BDF80490EC
:1014F800A2EB09031BB2049380B2A0EB050B1FFA01
:101508008BFB1FFA88F3A3EB09090FFA89F9A0EB03
:101518000A0081B202919B1A1BB20593444526D05A
:10152800013A13B2019C00263746CDF818A09A4616
:10153800CDF81C80E04626E0954201DC11DB2A4606
:10154800904203DBA84210DD054610462A1A92B2E3
:101558000132009B12B20199FFF7D7FE09B0BDE82E
:10156800F08F13462A461D46EAE71046EEE7039B2E
:10157800D8E7121A92B20132009B12B22146FFF745
:10158800C4FE013424B2544512DC049B97FBF3F2E9
:101598002A4412B296FBF9F0284400B247443FB2FD
:1015A8005E4436B28242E4DC034610461A46E0E75F
:1015B800DDF818A0DDF81C80039BE61A029B16FBD9
:1015C80003F636B2019BE71A17FB0BF73FB209E0A7
:1015D800121A92B20132009B12B22146FFF795FE11
:1015E800013424B2A045B9DB059B96FBF3F25244C3
:1015F80012B297FBF9F0284400B2029B1E4436B29F
:101608005F443FB28242E3DC034610461A46DFE7F6
:101618002DE9F04F87B0039004910592BDF840B0D2
:101628009DF84480EF2876DC14461D460346B1F544
:10163800A07F70DA18469946464608EB48025300E0
:101648000344012B67D48A4601EBC803012B62D4FB
:101658002346AF2C02D90133DBB205930027CDF81E
:1016680008B0AB464BE0049BE118039BF8185A46B8
:1016780089B280B2FFF700FD17E0029B5B4514D0EA
:10168800B8F1010F2DD006FB07F006FB04F109EBBA
:101698000602731C03EB0A0C029B00930CEB01037C
:1016A800024451444844FFF719FD6D08013464B2FF
:1016B800072C22DC15F0010FDFD0B8F1010FD2D0D2
:1016C80006FB07F006FB04F109EB0602731C534402
:1016D800CDF800B00B44024451444844FFF7FEFCE7
:1016E800E3E7049BE118039BF818029A89B280B2D9
:1016F800FFF7C2FCD9E700250BE001377FB2052FC1
:1017080009DC052FF7D0059B03EB83033B44034A11
:10171800D55C0024CCE707B0BDE8F08F481C000872
:101728002DE9F04F83B007468B4692469946BDF89F
:1017380030809DF8346006EB46035D00ADB20024AE
:101748000CE015FB04F058440196CDF800804B4698
:10175800514600B2FFF75CFF0134A4B2272C02D82F
:101768003A5D002AEDD103B0BDE8F08F08B5013825
:1017780003282BD8DFE800F0020C1620184B0122B2
:101788001A703620FFF7C4FB8820FFF7C5FB08BD99
:10179800134B02221A703620FFF7BAFB2820FFF7F6
:1017A800BBFBF4E70E4B03221A703620FFF7B0FBA1
:1017B8004820FFF7B1FBEAE7094B04221A703620EC
:1017C800FFF7A6FBE820FFF7A7FBE0E7044B0122A1
:1017D8001A703620FFF79CFB8820FFF79DFBD6E7A1
:1017E80008000020F0B58DB00024079408940994EF
:1017F8000A940B9401942E4B1A6B42F080021A63E0
:101808001A6B02F080020192019A02941A6B42F05C
:1018180004021A631A6B02F004020292029A0394F9
:101828001A6B42F002021A631A6B02F00202039268
:10183800039A04941A6B42F040021A631A6B02F07E
:1018480040020492049A05941A6B42F010021A633B
:101858001A6B02F010020592059A06941A6B42F070
:1018680008021A631B6B03F008030693069B114FCB
:10187800224620213846FEF7C7FF0F4E01221146A7
:101888003046FEF7C1FF20230793012508950994E8
:101898000A9407A93846FEF7D3FE079508950994D8
:1018A8000A9407A93046FEF7CBFE0DB0F0BD00BF85
:1018B80000380240000802400004024010B588B019
:1018C80000220492079212484FF02043036003F568
:1018D8008273436006238360C26002611021416104
:1018E8008261C261026242624FF480548462C262C1
:1018F800026342638263426401930F240294039358
:1019080005911123069301A9FFF768FA08B010BDE5
:101918003800002030B595B03022002108A800F02A
:101928007BF9002403940494059406940794019485
:101938001B4B1A6C42F080521A641B6C03F08053E4
:101948000193019B0294174B1A6842F480421A6073
:101958001B6803F480430293029B012308934FF40E
:101968008033099302250E954FF480030F930423C7
:101978001093A82211921295139308A8FEF74AFF14
:101988000F230393049505944FF4A05306934FF443
:1019980080530793052103A8FFF774F915B030BDEC
:1019A800003802400070004000B585B0FEF7ACFD7D
:1019B800FFF7B0FFFFF716FFFFF780FF1F4C00226D
:1019C80020212046FEF720FF1420FEF7C9FD012242
:1019D80020212046FEF718FFC820FEF7C1FDFFF7BB
:1019E800C8FA0320FFF7C2FE1F20FFF74FFB4FF492
:1019F800FC63282232210846FFF78BFB4FF478431B
:101A08005022BE216E20FFF724FD012301934FF6DB
:101A1800E07300935A220A210948FFF781FE002348
:101A280002934FF496730193BE230093A0236E2272
:101A380019460A20FFF727FDFEE700BF000802400D
:101A480060210008F0B587B0002301930293039347
:101A5800049305931B4B1B680BB107B0F0BD194BE2
:101A680001221A6000260096174B9A6B42F0010279
:101A78009A639B6B03F001030093009B41F20103FF
:101A8800019302270297032504950C24059401A9C4
:101A98000E48FEF7D5FD4FF6807301930297039623
:101AA8000495059401A90A48FEF7CAFD4CF2337360
:101AB8000193029703960495059401A90548FEF73A
:101AC800BFFDCAE72C000020003802400018024081
:101AD80000100240000C024082B0002100910B4B24
:101AE8005A6C42F480425A645A6C02F48042009262
:101AF800009A01911A6C42F080521A641B6C03F030
:101B080080530193019B02B0704700BF0038024028
:101B180008B5FFF797FF08BD7047FEE7FEE7FEE749
:101B2800FEE770477047704708B5FEF707FD08BD28
:101B38000F49D1F8883043F47003C1F888300D4B51
:101B48001A6842F001021A60002098601A6822F0B0
:101B5800847222F480321A60074A5A601A6822F4A2
:101B680080221A60D8604FF000638B60704700BF16
:101B780000ED00E00038024010300024DFF834D0D7
:101B8800002103E00C4B5B58435004310B480C4BCD
:101B980042189A42F6D30B4A02E0002342F8043B6B
:101BA800094B9A42F9D3FFF7C3FF00F011F8FFF78A
:101BB800FBFE704700000220802100080000002082
:101BC800100000201000002088000020FEE7000020
:101BD80070B50D4E0D4CA41BA4100025A54209D1CB
:101BE8000B4E0C4C00F020F8A41BA4100025A542B5
:101BF80005D170BD56F8253098470135EEE756F8FF
:101C0800253098470135F2E7782100087821000847
:101C1800782100087C21000802440346934200D141
:101C2800704703F8011BF9E7F8B500BFF8BC08BC1A
:101C38009E467047F8B500BFF8BC08BC9E46704782
:101C480000000000003E5B4F5B3E3E6B4F6B3E1C4E
:101C58003E7C3E1C183C7E3C181C577D571C1C5E65
:101C68007F5E1C00183C1800FFE7C3E7FF0018243C
:101C78001800FFE7DBE7FF30483A060E26297929E6
:101C880026407F050507407F05253F5A3CE73C5A1B
:101C98007F3E1C1C08081C1C3E7F14227F22145FF8
:101CA8005F005F5F06097F017F006689956A606053
:101CB80060606094A2FFA29408047E040810207E4D
:101CC800201008082A1C08081C2A08081E101010D2
:101CD800100C1E0C1E0C30383E3830060E3E0E0618
:101CE800000000000000005F00000007000700146B
:101CF8007F147F14242A7F2A12231308646236492A
:101D08005620500008070300001C22410000412211
:101D18001C002A1C7F1C2A08083E08080080703016
:101D28000008080808080000606000201008040285
:101D38003E5149453E00427F40007249494946218B
:101D480041494D331814127F1027454545393C4AFF
:101D58004949314121110907364949493646494916
:101D6800291E00001400000040340000000814225E
:101D780041141414141400412214080201590906CC
:101D88003E415D594E7C1211127C7F494949363ECD
:101D9800414141227F4141413E7F494949417F09B3
:101DA8000909013E414151737F0808087F00417FBE
:101DB80041002040413F017F081422417F404040BC
:101DC800407F021C027F7F0408107F3E4141413E54
:101DD8007F090909063E4151215E7F0919294626D6
:101DE8004949493203017F01033F4040403F1F20DA
:101DF80040201F3F4038403F6314081463030478B1
:101E080004036159494D43007F41414102040810D0
:101E180020004141417F040201020440404040400B
:101E2800000307080020545478407F284444383879
:101E380044444428384444287F38545454180008EB
:101E48007E090218A4A49C787F0804047800447DC5
:101E580040002040403D007F1028440000417F4062
:101E6800007C047804787C080404783844444438B6
:101E7800FC1824241818242418FC7C080404084896
:101E88005454542404043F44243C4040207C1C20E7
:101E980040201C3C4030403C44281028444C909042
:101EA800907C4464544C440008364100000077009C
:101EB80000004136080002010204023C2623263CA9
:101EC8001EA1A161123A4040207A38545455592134
:101ED800555579412254547842215554784020541C
:101EE8005579400C1E52721239555555593954546A
:101EF800545939555454580000457C410002457DD9
:101F0800420001457C407D1211127DF0282528F001
:101F18007C545545002054547C547C0A097F49322E
:101F2800494949323A4444443A324A4848303A41A5
:101F380041217A3A42402078009DA0A07D3D42424E
:101F4800423D3D4040403D3C24FF2424487E4943D7
:101F5800662B2FFC2F2BFF0929F620C0887E09034A
:101F680020545479410000447D413048484A323871
:101F78004040227A007A0A0A727D0D19317D26299D
:101F8800292F28262929292630484D402038080895
:101F9800080808080808382F10C8ACBA2F102834C9
:101FA800FA00007B000008142A142222142A1408BC
:101FB8005500550055AA55AA55AAFF55FF55FF00CB
:101FC8000000FF00101010FF00141414FF00101080
:101FD800FF00FF1010F010F0141414FC001414F794
:101FE80000FF0000FF00FF1414F404FC1414171081
:101FF8001F10101F101F1414141F00101010F000D1
:102008000000001F101010101F10101010F010000A
:102018000000FF101010101010101010FF1000001A
:1020280000FF140000FF00FF00001F10170000FC55
:1020380004F414141710171414F404F40000FF0027
:10204800F714141414141414F700F71414141714B0
:1020580010101F101F141414F4141010F010F000B6
:10206800001F101F0000001F14000000FC140000D7
:10207800F010F01010FF10FF141414FF14101010BB
:102088001F00000000F010FFFFFFFFFFF0F0F0F06E
:10209800F0FFFFFF0000000000FFFF0F0F0F0F0F02
:1020A8003844443844FC4A4A4A347E02020606024E
:1020B8007E027E0263554941633844443C04407EB5
:1020C800201E2006027E020299A5E7A5991C2A492E
:1020D8002A1C4C7201724C304A4D4D3030487848B9
:1020E80030BC625A463D3E494949007E0101017EA5
:1020F8002A2A2A2A2A44445F444440514A444040F8
:10210800444A51400000FF0103E080FF0000080836
:102118006B6B083612362436060F090F06000018B6
:10212800180000001010003040FF0101001F0101DD
:102138001E00191D1712003C3C3C3C00000000002A
:10214800000000000000000001020304060708095F
:1021580000000000010203044F4C47412049204C75
:082168004F564520594F550068
:0821700088E0FF7F0100000080
:04217800AD010008AD
:04217C0089010008CD
:102180000100000010000000010000000024F40025
:0400000508001B854F
:00000001FF
